:020000040800F2
:1000000008150020990100084F1D0008DF1A00089C
:100010004D1D000801040008F9210008000000003F
:1000200000000000000000000000000001010008C6
:10003000250400080000000045010008211F0008F9
:10004000B3010008B3010008B3010008B3010008C0
:10005000B3010008B3010008B3010008B3010008B0
:10006000B3010008B3010008B3010008B3010008A0
:10007000B3010008B3010008B3010008B301000890
:10008000B3010008B301000839030008B3010008F8
:10009000B3010008B3010008B3010008B301000870
:1000A000B3010008B3010008B3010008B301000860
:1000B000B3010008B3010008F91F0008B3010008EC
:1000C000B3010008B3010008B3010008B301000840
:1000D000B3010008B3010008B3010008B301000830
:1000E000B3010008B3010008B3010008DFF80CD029
:1000F00000F010F9004800477D2300080815002093
:10010000224B19680868B0E8F00F80F30988BFF344
:100110006F8F4FF0000080F311884EF00D0E704786
:100120000000000006480068006880F3088862B696
:1001300061B6BFF34F8FBFF36F8F00DF00BF00BF0B
:1001400008ED00E0EFF30980BFF36F8F0F4B1A68E3
:1001500020E9F00F106008B54FF0500080F31188CF
:10016000BFF34F8FBFF36F8F02F0E0FD4FF0000041
:1001700080F31188BDE8084019680868B0E8F00FFE
:1001800080F30988BFF36F8F704700BF2C000020F9
:10019000EFF3058070470000064880470648004797
:1001A000FEE7FEE7FEE7FEE7FEE7FEE7FEE7FEE727
:1001B000FEE7FEE7B11F0008ED00000840EA01037A
:1001C0009B0703D009E008C9121F08C0042AFAD20D
:1001D00003E011F8013B00F8013B521EF9D27047D1
:1001E000D2B201E000F8012B491EFBD27047002279
:1001F000F6E710B513460A4604461946FFF7F0FF26
:10020000204610BD80EA010210B502F00043400014
:1002100022D04A001FD0010E01EB1261C0F356003C
:10022000C2F3560240F4000042F40002A0FB022098
:1002300000047F39140400D0401C50EA124001D45D
:100240004000491EC2B20C0604EBD010401C40080E
:10025000802A02D003E0002010BD20F00100002918
:1002600000DA0020184310BD96230022114600F04A
:1002700022B800F0004220F00040C10DC0F316008B
:1002800040F400007F2901DA00207047962903DC42
:10029000C1F19601C84001E096398840002AF4D0A7
:1002A000404270470029A8BF7047401C490008BF62
:1002B00020F00100704710B4B0FA80FC00FA0CF096
:1002C00050EA010404BF10BC704749B1CCF12004CE
:1002D00021FA04F411FA0CF118BF0121214308435B
:1002E000A3EB0C01CB1D4FEA00614FEA102042BF87
:1002F000002010BC704700EBC35010440029A4BF7D
:1003000010BC7047401C490008BF20F0010010BC21
:1003100070470000064C074D06E0E06840F001031E
:1003200094E8070098471034AC42F6D3FFF7E2FE9A
:100330002038000840380008014800F070B900007B
:100340007C00002070B5044600688168C943C90775
:100350001CD1816821F00101816000F0FFFB05469E
:100360000FE000BF00F0FAFB401B022809D9A06A89
:1003700040F01000A062E06A40F00100E06201205D
:1003800070BD20688068C043C007EBD0002070BDFE
:10039000F8B500260446009600688168C943C9077D
:1003A00028D0816841F00101816013481349006839
:1003B000B0FBF1F000E0401E00900028FBD100F0FF
:1003C000CDFB054611E000BF00F0C8FB401B022832
:1003D0000BD9A06A40F01000A062E06A40F0010072
:1003E000E06284F824600120F8BD20688068C04382
:1003F000C007E9D10020F8BD2800002040420F00CE
:10040000FEE7000010B5064C01228021204600F0D6
:100410009FFB20460022BDE81040802100F098BBE1
:100420000010014070477047F8B50025044600955C
:1004300090F82400012808D0012084F824002046E8
:10044000FFF780FF060002D04BE00220F8BDA06A53
:1004500020F4885040F00200A062022000F03CFC32
:1004600022490968B1FBF0F0400000E0401E009016
:100470000028FBD12046FFF78BFF2068816841F000
:100480000801816000F06AFB074604E000F066FBAB
:10049000C01B0A2811D8206880680007F6D420689D
:1004A000816841F00401816000F058FB07460EE0CE
:1004B00000F054FBC01B0A2809D9A06A20F00200F2
:1004C00040F01000A06284F824500120F8BD20689C
:1004D00080684007ECD4A06A20F0020040F00100E0
:1004E000A06284F824503046F8BD000028000020A7
:1004F00070470000F8B50024009490F824202546A9
:10050000012A12D0012280F824204A681F23072ADA
:100510000DD20668776B521E02EB820293409F4316
:100520000B6893401F43776319E00220F8BD06680B
:100530000D2A0AD2376BD21F02EB820293409F43EF
:100540000B6893401F43376309E0F76A0D3A02EBEB
:10055000820293409F430B6893401F43F7620A68EF
:10056000072306680A2A0AD3F7680A3A02EB42020E
:1005700093409F438B6893401F43F76008E03769BF
:1005800002EB420293409F438B6893401F433761C5
:100590000A68102A01D0112A20D1124B02689A420F
:1005A00017D193681B0219D4936843F40003936036
:1005B0000968102912D10C490C4A0968B1FBF2F103
:1005C00001EB8101490000E0491E00910029FBD1A7
:1005D00004E0816A41F020018162012480F8245006
:1005E0002046F8BD002401402800002040420F00B2
:1005F00010B500680549884206D1054800F00CF89E
:10060000044948800120087010BD0000002401400A
:100610007C000020000000200068C06C704710B50E
:10062000044600684168890626D50168890723D5F4
:10063000A16AC90603D4A16A41F40071A16281686C
:10064000C1F34241072910D1217B71B9416821F0E2
:1006500020014160A06A20F48070A062A06AC004FA
:1006600003D4A06A40F00100A0622046FFF7C0FF5B
:1006700021686FF0120008602068416809062ED5D5
:10068000016849072BD5A16AC90603D4A16A41F4C0
:100690000051A1628168C1F30231072909D0416884
:1006A000490515D48168C1F34241072910D1217B46
:1006B00071B9416821F080014160A06A20F4805046
:1006C000A062A06AC00503D4A06A40F00100A06245
:1006D0002046FFF70DFF21686FF00C0008602068CE
:1006E000416849060DD50068C0070AD0A06A40F4E9
:1006F0008030A062204600F093F821686FF001007E
:10070000086010BD2DE9F0414FF0000704003D46A0
:100710007ED0A06A002628B9E66284F824602046CC
:1007200000F080F82046FFF70DFEA16AC90600D44C
:1007300020B1A06A40F01000A06269E0A16A21F433
:10074000885141F00201A1626268E169237B0A439A
:1007500047EA43010A43A1684FF48077B94209D0C0
:10076000012907D05FF0000194F814C0BCF1010F1B
:1007700002D00AE03946F7E7F3B1A36A43F0200359
:10078000A362E36A43F00103E3622368D3F804C081
:100790002CF4694C4CEA010CC3F804C021688B6846
:1007A000DFF870C003EA0C0313438B60A168B94201
:1007B0000BD0012909D00CE0DFF85CC0A3690CEB79
:1007C00043330B4343F40061DFE7218A0D05A5F5B0
:1007D00080152168CB6A23F470032B43CB62216818
:1007E00089680E4B1940914208D1E662A16A21F056
:1007F000020141F00101A162BDE8F081A06A20F090
:10080000020040F01000A062E06A40F00100E062E7
:100810000120F1E7FDF7E1FF00E0FFFFFE0E1FFF03
:100820007047000000B585B0002100910191029150
:10083000039100681249884220D11248816941F42D
:1008400000718161816901F400710491816941F055
:10085000040181618069694600F004000490012070
:10086000009003200190084800F076F8002205214E
:10087000122000F0FFF9122000F0EEF905B000BDE3
:1008800000240140001002400008014070B50446F9
:1008900090F8240001280DD0012084F8240020467F
:1008A000FFF776FD02004FF0000005D084F8240029
:1008B000104670BD022070BDA16A40F601639943E5
:1008C00041F48071A162224D23682249AB4218D1C4
:1008D0000E6816F4702F14D0A66A46F48016A6622D
:1008E0000E68760505D5A66A26F4005646F48056AD
:1008F000A662A66AF6040AD5E66A26F00606E6624D
:1009000006E0A66A26F48016A6625E68E9E7E06261
:1009100084F824006FF0020018602068436843F0F8
:100920002003436020688368C3F34243072B05D14B
:10093000A84208D1096811F4702F04D0816841F4ED
:1009400080118160B4E7816841F4A001F9E70000FB
:1009500000280140042401402DE9F84FDFF8B89148
:10096000002409F1040A0AF1040B23460F270BF1B6
:10097000040EC9E00125A5402A40AA427DD1674E58
:10098000D1F804C0ACEB0608B44532D014DCBCF19D
:10099000030F3AD009DCBCF1000F2AD0BCF1010FE3
:1009A0001CD0BCF1020F31D11DE0BCF1110F17D0EA
:1009B000BCF1120F2AD119E0B8F5881F19D006DC56
:1009C000B8F5803F15D0B8F5801F1FD111E0B8F5FC
:1009D000001F0ED0B8F5041F18D10AE0CB6815E04F
:1009E000CB681B1D12E0CB6808330FE0CB680C33DB
:1009F0000CE08B682BB1012B4FF0080303D045614D
:100A000004E0042302E0056100E00023FF2A01D88E
:100A1000064601E000F104064FEA840501D9A5F17C
:100A20002005D6F8008007FA05FC28EA0C0803FA2E
:100A300005F548EA0508C6F800804D68ED0062D566
:100A4000374DAE6946F00106AE61AD6924F003068C
:100A500005F001050095334D06EB050CDCF8085058
:100A6000A607360F07FA06F825EA0805DFF8B8806A
:100A7000404503D14FF0000817E044E0DFF8AC80B8
:100A8000404502D14FF001080FE0DFF8A480404557
:100A900002D14FF0020808E0DFF89880404502D10B
:100AA0004FF0030801E04FF0040808FA06F848EA9E
:100AB0000508CCF808804D68D9F80060ED034D4674
:100AC00001D5164300E096432E604D68DAF80060C9
:100AD000AD03554601D5164300E096432E604D68A0
:100AE000DBF80060ED025D4601D5164300E0964359
:100AF0002E604D68DEF80060AD02754601D51643E4
:100B000000E096432E60641C0D682A46E5407FF4A1
:100B100031AFBDE8F88F0000000401400000111063
:100B2000001002400000014000080140000C01409C
:100B300000100140001401408068084000D00120EE
:100B40007047C2680A4201D0416170470161704735
:100B50000AB1016170470904FBE7000001488068A1
:100B6000704700001C000020024881680278114490
:100B7000816070471C000020074810B5016841F0F3
:100B800010010160032000F095F8002000F006F845
:100B900000F03EF8002010BD0020024000B50146E4
:100BA00087B000221E2000F065F81E2000F054F8E7
:100BB0001348C16941F00401C161C06905A900F091
:100BC00004000690684600F0F7F900F015FA0D49A8
:100BD0004000B0FBF1F10D480B4A491E0260416034
:100BE00040F2E7320021C0E90321816000F027FDD7
:100BF00010B1012007B000BD044800F061FDF9E725
:100C00000010024040420F0000080040D8030020BE
:100C10000F4808B5816941F001018161816901F0E6
:100C200001010091C16941F08051C161C069002298
:100C300000F0805000900F21901E00F01BF8054836
:100C4000416821F0E06141F00071416008BD0000A1
:100C50000010024000000140002809DB00F01F02E4
:100C6000012191404009800000F1E020C0F800110E
:100C700070470000F0B40E4B1B680C46C3F3022310
:100C8000C3F10705042D00D90425191D072901D238
:100C9000002300E0DB1E012606FA05F1491E214073
:100CA00099409E40761E16403143F0BC01F0A5BA33
:100CB0000CED00E0064900F0070208684FF6FF035C
:100CC000184040EA0220034A1043086070470000C1
:100CD0000CED00E00000FA0510B529A401461DCC7A
:100CE00086B08DE81D002AA02A4C006804900020E0
:100CF000012923D002293AD010291DD16168226828
:100D0000D20119D5C1F38342C9031DF8020009D5E8
:100D1000616804AAC1F34041515C1F4AB2FBF1F182
:100D2000484301E01D4948436168490204D440003A
:100D30005FF00301B0FBF1F006B010BD226AC2F310
:100D40000121012903D1920701D5C803F4E7022943
:100D500005D1626A920702D549F64040ECE70329C3
:100D6000EAD121688903E7D54FF22440E4E700F097
:100D700053F96168C1F38131491C4900DAE7000089
:100D800002030405060708090A0B0C0D0E0F1010CC
:100D9000010200000010024000127A0000093D002C
:100DA0002DE9F84305460078354CC00754D0E0697A
:100DB0000026C00008D4E06940F08050E061E0699E
:100DC000012600F0805000902E480168C90512D419
:100DD0000168804641F480710160FFF7BFFE07465D
:100DE00005E000BFFFF7BAFEC01B642823D8D8F87F
:100DF0000000C005F6D5206A10F4407021D0A98803
:100E000001F4407181421CD0206A1F49012220F464
:100E100040700A6000220A602062C00711D0FFF70C
:100E20009DFE074641F2883808E000BFFFF796FEB6
:100E3000C11B414502D90320BDE8F883206A800721
:100E4000F4D5206A696820F44070084320621EB11E
:100E5000E06920F08050E0612878800705D560685F
:100E6000A96820F44040084360602878C00605D592
:100E70006068E96820F48000084360600020DBE7D8
:100E80000010024000700040400442422DE9F0474B
:100E90000F46050061D0434E306800F00700B842AD
:100EA00009D2306820F0070038433060306800F025
:100EB0000700B84251D128683B4C810712D5400742
:100EC00003D5606840F4E06060602878000703D5CF
:100ED000606840F4605060606068A96820F0F000CD
:100EE000084360602878C00728D06868012810D0BF
:100EF0002168022810D0890700292EDA616821F0C4
:100F0000030101436160FFF729FE804641F2883901
:100F10000DE021688903EFE78901EDE7FFF71EFE89
:100F2000A0EB0801494502D90320BDE8F0876068BD
:100F3000696800F00C00B0EB810FEFD1306800F071
:100F40000700B8420BD9306820F007003843306002
:100F5000306800F00700B84201D00120E5E72878AA
:100F6000400705D56068E96820F4E06008436060E8
:100F70002878000706D56068296920F4605040EAA7
:100F8000C100606000F058F86168084AC1F30311BD
:100F9000515CC8400649086006480068FFF7FEFD3E
:100FA0000020C2E70020024000100240D0370008B5
:100FB00028000020200000200F2202600C4A536805
:100FC00003F003034360536803F0F0038360536846
:100FD00003F4E063C36052684FF4E06303EAD202B3
:100FE00002610448006800F00700086070470000D4
:100FF000001002400020024004480549006849688A
:10100000044AC1F30221515CC84070472800002007
:1010100000100240E03700080448054900684968AC
:10102000044AC1F3C221515CC84070472800002027
:1010300000100240E037000812A185B00FC98DE80A
:101040000F0014A0144A006804905168134801F07E
:101050000C03042B10D0082B0ED1C1F38343C9031A
:101060001DF803000AD5516804AAC1F34041515C40
:101070000A4A5043B0FBF1F005B0704708494843B5
:10108000FAE7000002030405060708090A0B0C0D25
:101090000E0F1010010200000010024000127A0032
:1010A00000093D002DE9F84F040070D02078C04DB4
:1010B000C00749D06868C0F38100012807D068687C
:1010C000C0F38100022809D16868C00306D52868EA
:1010D000800339D560680028E7D035E06068B0F556
:1010E000803F0BD010B1B0F5A02F11D0286820F4AC
:1010F00080302860286820F4802002E0286840F4CE
:1011000080302860606890B1FFF728FD06460AE04D
:10111000286840F480202860F0E700BFFFF71EFD3C
:10112000801B642873D828688003F7D50CE0FFF78C
:1011300015FD064605E000BFFFF710FD801B642883
:10114000F0D828688003F7D420789A4E80074FF0B3
:1011500001094FF0000839D5686810F00C0F07D06E
:101160006868C0F38100022809D16868C00306D40A
:101170002868800714D52069012808D110E020696B
:10118000B0B1C6F80090FFF7E9FC074605E00AE1B8
:10119000FFF7E4FCC01B0228C4D828688007F7D5F5
:1011A0002868616920F0F80040EAC10028600DE07D
:1011B000C6F80080FFF7D2FC074604E0FFF7CEFC3C
:1011C000C01B022823D828688007F7D4207800079E
:1011D0002CD57948A169D9B1C0F80090FFF7BEFCC1
:1011E000074604E0FFF7BAFCC01B02280FD8686A64
:1011F0008007F7D571484FF4FA510068B0FBF1F061
:10120000009000BF0098411E0091FAD20EE080E0ED
:10121000C0F80080FFF7A2FC074604E0FFF79EFC41
:10122000C01B022875D8686A8007F7D42078400769
:1012300060D5E8690027C00008D4E86940F0805014
:10124000E861E869012700F0805000905C4801687F
:10125000C90513D40168834641F480710160FFF72A
:101260007DFC824606E000BFFFF778FCA0EB0A0099
:1012700064284ED8DBF80000C005F5D5E0680128E9
:101280000AD008B1052813D0286A20F0010028628E
:10129000286A20F0040002E0286A40F00100286279
:1012A000E06841F2883B98B1FFF758FC82460BE0BA
:1012B000286A40F004002862EEE700BFFFF74EFC0A
:1012C000A0EB0A0159455AD8286A8007F6D50CE0E8
:1012D000FFF744FC824605E0FFF740FCA0EB0A0163
:1012E00059454CD8286A8007F6D41FB1E86920F028
:1012F0008050E861E06988B36968C1F3810102291F
:1013000044D00228C6F8608004D0FFF727FC0446CA
:1013100038E034E0FFF722FC074604E0FFF71EFC4C
:10132000C01B02282BD828688001F7D4206AB0F5AA
:10133000803F05D16868A16820F4003008436860E8
:10134000D4E908010843696821F47411084368600E
:10135000C6F86090FFF702FC044606E025E000BFF7
:10136000FFF7FCFB001B022809D828688001F7D58D
:101370001BE000BFFFF7F2FB001B022802D903208D
:10138000BDE8F88F28688001F4D40EE00128F7D07A
:101390006868226A00F48031914204D1616A00F4E5
:1013A0007010884201D00120EAE70020E8E7000041
:1013B0000010024000004242800442422800002007
:1013C0000070004070B5040005D00025A56294F8B7
:1013D000510010B106E0012070BD84F85050204645
:1013E00000F02EF8022084F851002068016821F0F6
:1013F00040010160D4E901010843D4E9031211431B
:10140000084361690843218B01F400710843E169D5
:101410000843216A0843A16A084321680860A0695B
:10142000042101EA1040216848602068C16921F464
:101430000061C1616565012084F85100002070BD24
:1014400000B585B0002100910191029103910068DF
:101450000F4988421AD10F48816941F48051816156
:10146000816901F480510491816941F00401816135
:101470008069694600F004000490A02000900220DA
:101480000190032003900448FFF766FA05B000BD01
:101490000030014000100240000801402DE9F84FE3
:1014A000044690F8500000271D461646894601283C
:1014B0000DD04FF0010B84F850B0FFF74FFB804682
:1014C00094F85100BA46012804D002278EE0022089
:1014D000BDE8F88FB9F1000F7DD0002E7BD003203E
:1014E00084F85100C4F854A0C4F83090A686E6866B
:1014F000C4F838A0A4F83CA0A4F83EA0C4F844A0C6
:10150000C4F840A0A068B0F5004F04D1206801687D
:1015100041F48041016020680168490603D40168F4
:1015200041F040010160E068B0F5006F606803D0F1
:1015300030B3012E24D040E008B1012E1CD1206B25
:1015400021680088C86006E020688168890709D59D
:10155000216B0988C160206B801C2063E08E401ED7
:10156000E08609E0FFF7FAFAA0EB0800A84202D3F0
:10157000681C01D031E07DB3E08E0028E4D11FE08B
:10158000206B21680078087306E02068816889076D
:1015900009D5216B09780173206B401C2063E08E14
:1015A000401EE08609E0FFF7D9FAA0EB0800A84248
:1015B00002D3681C01D010E075B1E08E0028E4D1A0
:1015C00042462946204600F0C3FB08B12020606552
:1015D000A06820B107E008E0FFE7032706E02068E5
:1015E000C16880680090606D00B1012784F851B037
:1015F00084F850A038466BE77047704770B590F894
:101600003C20012A19D0012400F83C4F02224270EC
:1016100050F83C3C5A689D6822F070060A68496898
:10162000324325F0800529435A6050F83C2C9160E4
:10163000447000210170084670BD022070BD10B5D5
:10164000040003D094F83D0010B107E0012010BD64
:10165000002084F83C00204600F00CF8022084F8BA
:101660003D00211D206800F0CDFC012084F83D00E4
:10167000002010BD08B500680649884208D1064818
:10168000C16941F00201C161C06900F0020000902F
:1016900008BD00000004004000100240022180F854
:1016A0003D1001688A6802F00702062A03D00A6822
:1016B00042F001020A60012180F83D1000207047CD
:1016C0000168CA6842F00102CA600068816801F0DE
:1016D0000701062903D0016841F0010101600020E3
:1016E000704770B5044690F83C00012817D00125DA
:1016F00084F83C50022084F83D002068826822F083
:10170000770222F47F4282600868502830D00DDCD6
:1017100020284DD005DC98B310283BD148E00220AA
:1017200070BD302844D0402834D139E0602828D01A
:10173000702806D0B0F5805F2CD0B0F5005F29D1BD
:101740000AE0CB68D1E90121206800F091FC206813
:10175000816841F0770109E0CB68D1E90121206877
:1017600000F086FC2068816841F48041816011E0CE
:10177000CA684968206800F08DFC5021206807E0A5
:1017800016E0CA684968206800F095FC602120686E
:1017900000F078FC84F83D50002084F83C0070BDD7
:1017A000CA684968206800F075FC40212068EFE7AE
:1017B000226801461046EBE7704770B504460068A2
:1017C00001694FF00005C943890715D4C168C943B1
:1017D000890711D4E91E0161012020772068806902
:1017E0008007204602D0FFF7E7FF04E000F098F8FA
:1017F000204600F096F8257720680169C94349071B
:1018000017D4C168C943490713D46FF004010161BB
:10181000022020772068806910F4407F204602D0A3
:10182000FFF7CAFF04E000F07BF8204600F079F8EB
:10183000257720680169C943090716D4C168C943DF
:10184000090712D46FF00801016104202077206895
:10185000C0698007204602D0FFF7AEFF04E000F029
:101860005FF8204600F05DF8257720680169C943DC
:10187000C90617D4C168C943C90613D46FF0100153
:101880000161082020772068C06910F4407F20465D
:1018900002D0FFF791FF04E000F042F8204600F08C
:1018A00040F8257720680169C943C90708D1C16894
:1018B000C943C90704D1891E0161204600F032F8EE
:1018C00020680169C943090609D4C168C9430906EA
:1018D00005D46FF0800101612046FFF78DFE20687E
:1018E0000169C943490609D4C168C943490605D4F9
:1018F0006FF040010161204600F01EF82068016988
:10190000C94389060BD4C168C943890607D46FF05F
:10191000200101612046BDE87040FFF76EBE70BD3A
:101920007047704700680349884201D1FFF71CB92E
:101930007047000000080040704770B5040004D0F4
:1019400094F83900002510B106E0012070BD84F83C
:101950003850204600F022F8242084F8390020680E
:10196000C16821F40051C160204600F0B7FB206837
:10197000016921F4904101612068416921F02A0147
:1019800041612068C16841F40051C160E5632020D5
:1019900084F8390084F83A00002070BD30B585B075
:1019A0000024009401940294039400681949884229
:1019B0002DD11948C16941F48021C161C16901F487
:1019C00080210491816941F0100181618069134D8A
:1019D00000F0100004904FF480600090022001900D
:1019E0000320039069462846FEF7B6FFE814CDE9C8
:1019F0000004694628460294FEF7AEFF0848416895
:101A000021F0300141F0E06141F01001416005B08A
:101A100030BD0000004800400010024000100140AE
:101A2000000001402DE9F843044690F839001F46B4
:101A300016460D46202850D1A5B19EB194F8380025
:101A400001284AD0012084F838004FF00008C4F87B
:101A50003C80212084F83900FFF780F8A684814675
:101A6000E68426E00120BDE8F883E08C401EE08497
:101A7000A0684B46B0F5805F4FF000024FF0800148
:101A80002046009703D000F085FBE8B90DE000F098
:101A900081FBC8B928882168C0F308004860206924
:101AA00008B16D1C05E0AD1C03E0216815F8010BC1
:101AB0004860E08C0028D8D14B46002240212046C7
:101AC000009700F067FB08B10320CCE7202084F8E2
:101AD000390084F838800020C5E70220C3E7FEE71C
:101AE0003EB5002411480094019402940E4984608C
:101AF000016004730475012505614FF40021446001
:101B0000C161FEF7FFFD08B1FEF78DFC07200094D0
:101B1000CDE9015069460548FEF7ECFC002801D0EC
:101B2000FEF781FC3EBD0000002401407C00002047
:101B300010B59EB000201C901D9001211CA800F043
:101B400058FC174C1C22174920616846FEF736FBEB
:101B50000021684600F09EFC124920601C221C31C6
:101B600007A8FEF72BFB002107A800F093FC0D4906
:101B700060601C2238310EA8FEF720FB00210EA861
:101B800000F088FC0749A0601C22543115A8FEF71C
:101B900015FB002115A800F07DFCE0601EB010BD13
:101BA00008000020603700082DE9F04186B00024CD
:101BB00028480094019402940394816941F0200123
:101BC0008161816901F020010491816941F0040182
:101BD0008161816901F004010491816941F0100182
:101BE0008161816901F010010491816941F008016E
:101BF00081618069184F00F008004FF42875049047
:101C0000002229463846FEF7A3FFDFF85080002265
:101C100010214046FEF79CFF009502260125039601
:101C2000CDE9015469463846FEF796FE1020CDE90D
:101C30000005CDE9024669464046FEF78DFE2020AC
:101C40008DE8310069464046FEF786FE06B0BDE8E5
:101C5000F08100000010024000100140000C014023
:101C6000104810B50E4901604FF4827141600021A7
:101C70008160C1604FF400720161C0E90512082261
:101C8000C0E90721416281620A21C162FFF79AFB24
:101C9000002803D0BDE81040FEF7C5BB10BD000012
:101CA000003001400003002010B586B00024184821
:101CB00000940194029403940494144905940160DF
:101CC00041F61F41C0E9011441F28731C0E9031414
:101CD0008461FFF7B4FC08B1FEF7A5FB4FF4805018
:101CE000009069460A48FFF7FCFC08B1FEF79BFB31
:101CF0002020CDE9040404A90548FFF77FFC002853
:101D000001D0FEF790FB06B010BD000000040040BB
:101D1000580300200C4810B50A4901604FF4E13126
:101D20004160002181600C22C160C0E90412816120
:101D3000C161FFF702FE002803D0BDE81040FEF7A6
:101D400072BB10BD0048004098030020FEE77047BA
:101D500038B50B46009204460022802100F008F8B6
:101D6000002804D0606D40F020006065032038BD7D
:101D70002DE9F0411D4617460E460446DDF8188051
:101D800008E0681C06D0FEF7E9FEA0EB0800A842B8
:101D90000BD255B12068806836EA000030D00020B0
:101DA000B842EED10020BDE8F0812068416821F002
:101DB000E00141606068B0F5827F0BD1A068B0F5AA
:101DC000004F02D0B0F5806F04D12068016821F087
:101DD00040010160A06AB0F5005F09D12068016888
:101DE00021F4005101602068016841F40051016054
:101DF000012084F85100002084F850000320D2E72D
:101E00000120CDE7124E4FF0FF352946306900F032
:101E10000FFBDFF840804FF47A744FF400772946C7
:101E2000306900F005FB23460C220BA10E48FFF79A
:101E3000F9FD00F0DBFD39464046FEF782FE234601
:101E40000B220AA10848FFF7EDFD00F0EFFDE6E7E1
:101E5000080000200010014053656D6170686F72CA
:101E60006532210A000000009803002041545445C7
:101E70004E54494F4E210A00044C20212046FEF7C3
:101E800060FEFA2000F0A2FAF7E70000001001401F
:101E900008B501F0C3FA0C4C0C4E0D4F0025009014
:101EA00020780128FCD13088FEF7DEF93946FEF7AC
:101EB000A9F90122032100F0D9F92570C82168464B
:101EC00000F08BFAECE70000000000200200002088
:101ED000AE47513A0124DFF84080104E00254FF400
:101EE000967720214046FEF727FE70B1002CF8D1EE
:101EF00001F094FA401BB842F3D9002301241A469A
:101F00001946306901F030F8EBE7002CF0D00024DE
:101F100001F084FA0546EBE7000C014008000020C0
:101F200010B5502080F31188BFF34F8FBFF36F8F30
:101F300001F07AFA18B104494FF08050086000208F
:101F400080F3118810BD000004ED00E030B593B0BF
:101F500028216846FEF74BF914210AA8FEF747F935
:101F6000002401200F9410941194010412948DE820
:101F7000130004904FF4E010CDE9081002250795F6
:101F80006846FFF78FF80F20CDE90A056802CDE912
:101F90000C4002210AA80E94FEF778FF4FF440404F
:101FA00011900F950FA8FEF7FBFE13B030BD000097
:101FB0000D48016841F00101016041680B4A114080
:101FC000416001680A4A11400160016821F48021E2
:101FD0000160416821F4FE0141604FF41F018160FE
:101FE0000449C00308607047001002400000FFF879
:101FF000FFFFF6FE08ED00E00148FFF7DEBB000042
:10200000D8030020F0B50268164B174C174D4FF05F
:102010008047984205D0B84203D0A04201D0A842E0
:1020200003D122F070064A683243984205D0B84284
:1020300003D0A04201D0A84203D122F44074CA6860
:1020400022434C6922F08002224302608A68C26205
:102050000A688262984201D10969016301214161E4
:10206000F0BD0000002C01400004004000080040CA
:1020700010B5846842EA032224F47F440A432243D1
:10208000826010BD826822F070020A4342F00701AC
:102090008160704710B5036A046A24F00104046289
:1020A000846924F0F00444EA021423F00A020A438B
:1020B0008461026210BD10B5036A23F0100303624D
:1020C0008369046A23F4704343EA023224F0A003D4
:1020D00043EA01118261016210BD00002DE9F04167
:1020E000044600680169E26821F44051114301612E
:1020F0002169A0680843616908432168CA6841F200
:102100000C639A430243CA6020684169A26921F4C2
:102110004071114341611E4920686425322688427E
:1021200002D1FEF779FF01E0FEF766FF00EBC00188
:1021300001EB001160686FF018078000B1FBF0F24E
:10214000B2FBF5F2B1FBF0F37A4303EB8202B1FB91
:10215000F0F306EB0212B2FBF5F2B3FBF5F302F07B
:10216000F00202EB0312B1FBF0F3B1FBF0F0B0FBB5
:10217000F5F0784303EB800006EB0010B0FBF5F0C0
:10218000216800F00F0010448860BDE8F081000075
:10219000003801402DE9F041984617460E460446A6
:1021A000069D1DE0681C1BD02DB1FEF7D7FCA0EBEF
:1021B0000800A84214D92068C16821F4D071C16018
:1021C0002068416921F001014161202084F8390033
:1021D00084F83A00002084F838000320BDE8F0813C
:1021E0002068006836EA000004D00020B842D9D048
:1021F0000020F3E70120F9E7FEE70907090E0028B0
:1022000004DB00F1E02080F80014704700F00F00BC
:1022100000F1E02080F8141D704702E008C8121F8A
:1022200008C1002AFAD170477047002001E001C1BF
:10223000121F002AFBD1704738B56D468DF800009B
:102240008DF801108DF802208DF803300024291933
:10225000642301220448FFF721F9FEF7D3F8641C38
:10226000E4B2042CF3D338BD000300202DE9F04183
:1022700017460C4601250A4E06E03146FDF7C2FF1F
:10228000641E6906E4B20D0E002CF6D1FDF7F1FFD5
:102290002A463946BDE8F04100B200F003B800001C
:1022A00000002041F8B52DA31B68009351EA0003FC
:1022B00015D0C50F002800DA40420323DFF8A0C084
:1022C00000B26F465FF00A0490FBF4F604FB1606BA
:1022D000F6B250EA010E06D01CF8066004E0812038
:1022E0008DF803002FE0FF2690FBF4F0FE5400B2BF
:1022F00051EA000602D05B1E5BB2E5D21DB17F2021
:10230000F91801F8010CD00705D09DF8030000F082
:10231000FE008DF80300900705D59DF8020000F03F
:10232000FE008DF80200500705D59DF8010000F071
:10233000FE008DF80100100705D59DF8000000F0A3
:10234000FE008DF800009DF803309DF802209DF8F6
:1023500001109DF80000FFF76FFFF8BDFFFFFFFFC2
:1023600054370008EFF30580002800D001207047A3
:10237000FF231A4619461846FFF75EBFFEF7FCFB1F
:10238000FFF7E4FDFFF710FCFFF7C4FCFFF7A8FB25
:10239000FFF78AFCFFF764FC0748FEF745F806489C
:1023A000FEF774FA0548FFF779F9FFF7E1FFFFF749
:1023B000BFFB00F019F8FEE77C0000205803002066
:1023C00001460020842900D0C81C704710B500B910
:1023D000012000F087FB002010BD10B501B90121DC
:1023E00000F0A6FB002010BD10B500F061FC00203D
:1023F00010BD38B543684BB1012909D10320002233
:1024000000901146012000F037FD38BD012901D0B0
:10241000002038BD03220021012000F009FD040046
:1024200004D000231A46194600F09EFD204638BD10
:1024300038B505004FF0000000900FD00024481C74
:102440000ED001B10C46FFF78DFFB8B16A460021EE
:10245000284600F039FE012816D104E0802038BD5E
:102460004FF0FF34EFE7009880B109494FF08050FA
:102470000860BFF34F8FBFF36F8F07E021462846F8
:1024800000F070FE012801D0FF2038BD002038BDCB
:1024900004ED00E07FB50D4604464169B0F908003F
:1024A00081B1A16971B1FFF78BFFD4E905128DE805
:1024B0000700D4E900102B46226900F076FF039054
:1024C00004B070BDFFF77CFF03A9CDE90001208AAD
:1024D0002B4682B2D4E9001000F03AFF012801D067
:1024E0000020EDE70398EBE72DE9F041184C0F468B
:1024F000054666692068001D00F028FA38B9206892
:1025000090F82C1001208840A1698143A161681CCA
:1025100007D137B12168BDE8F0410E48091D00F030
:1025200059BA20683544B5424560216805D2A06893
:10253000BDE8F041091D00F035BA6068091D00F0E2
:1025400031FA206B854200D22563BDE8F08100009E
:102550002C000020F40400202DE9F041054600F095
:1025600045FA2E4C2069401C206120682C4F10B188
:10257000E06940B32DE025602069012829D10026BB
:1025800006EB860007EB800000F0FEF9761C072EB4
:10259000F6D323488C3000F0F7F92148A03000F042
:1025A000F3F91F48B43000F0EFF91D48C83000F0CF
:1025B000EBF91B48DC3000F0E7F919488C3060601B
:1025C0001430A06005E02068E96AC06A884200D83B
:1025D0002560E06A401CE062E96A0120A269884047
:1025E0001043A06101EB810007EB8000291D00F082
:1025F000F1F900F01BFAE06900280CD02068E96AC4
:10260000C06A884207D207494FF080500860BFF384
:102610004F8FBFF36F8FBDE8F08100002C000020CA
:102620001804002004ED00E030B4026C0B46002AD0
:102630000BD0C1681144C1604468A14201D3016854
:10264000C16030BC1846FDF7B9BD30BC70472DE9FC
:10265000F041856B174604460026026C82B1C7B173
:10266000E068FDF7ABFDE168206C091AE1602268C3
:10267000914202D26168081AE060022F16D017E07A
:102680002068A8B9606800F033FF0646002060604B
:102690000EE0A068FDF792FD216CA0680844A060E0
:1026A0006168884204D32068A06001E005B16D1E16
:1026B0006D1CA5633046BDE8F08110B5044690F866
:1026C000510058B101280CD002280FD0502080F3BF
:1026D0001188BFF34F8FBFF36F8FFEE7206B00F0C1
:1026E000B9F92046BDE8104000F0B4B910BD0000B3
:1026F000144E154CA6F1C8074FF08058DFF84C90E7
:1027000012E000BF00F072F9F068C568281D00F003
:102710001DF92069401E2061E068401EE06000F065
:1027200085F92846FFF7C9FFE0680028EAD1386834
:102730000128F9D9C9F80080BFF34F8FBFF36F8F1D
:10274000F2E70000E00400202C00002004ED00E08F
:102750000346009829B10260C0E90F31012100F061
:10276000BFBB0060F8E72DE9F0479A46DDE9098430
:1027700081466FF00303206B03EB82021044089D37
:1027800020F00706700707D0502080F31188BFF3B0
:102790004F8FBFF36F8FFEE723180A5C83F8342056
:1027A0000A5C12B1401C1028F6D3002784F843704D
:1027B000072D00D30625E562C4E91157201D00F05E
:1027C000EEF804F1180000F0EAF82461C5F1070002
:1027D0006462A061E76484F850705246494630460E
:1027E00000F0A2F82060B8F1000F01D0C8F8004056
:1027F000BDE8F08710B5044600F0F8F8A06B28B1EA
:102800005FF0000400F012F9204610BD0124F9E742
:1028100006484168096829B14168C968C9684968BA
:10282000016370474FF0FF31FAE700002C000020F1
:1028300008484068401C4FF0500080F3118804D0D5
:10284000BFF34F8FBFF36F8FFEE7BFF34F8FBFF321
:102850006F8FFEE7700000202DE9F041044600F084
:10286000C5F894F9455004F1240609E0606A48B1BE
:10287000304600F0D3FE08B100F0A8F96D1E6DB22D
:10288000002DF3DC4FF0FF3684F8456000F0CEF801
:1028900000F0ACF894F9445004F1100709E0206905
:1028A00048B1384600F0BAFE08B100F08FF96D1E4D
:1028B0006DB2002DF3DC84F84460BDE8F04100F017
:1028C000B5B8000070B504460025400704D004F0F8
:1028D0000700C0F10800044400F020FA0A494868E3
:1028E00018B90A4820F0070048600A6840F6F83333
:1028F0001019984204D2904202D94B6808609D1882
:1029000000F0C6FE284670BD6800002010050020BB
:102910000449086818B10868826C521C826408680F
:10292000704700002C00002010B5031F4FF080748A
:102930001C601B1F21F001011960191F024B0B6065
:10294000143940380A6010BD31280008D0E901323E
:1029500001699A60D0E901235A604A68824201D134
:1029600082684A60002202610868401E08600868A8
:1029700070470000034B036003F15400086080209F
:1029800010607047AC00002000F108014FF0FF32EA
:10299000C0E90112C160016100210160704700219E
:1029A0000161704730B50B685A1C02D000F1080273
:1029B00002E0026904E02246546825689D42FAD983
:1029C00053684B6099608A60516008610168491CD6
:1029D000016030BD42684A6093688B6093685960BB
:1029E000916008610168491C01607047502080F3C4
:1029F0001188BFF34F8FBFF36F8F0A494868401C9F
:102A0000486001280CD10848006810F0FF0F07D07B
:102A1000502080F31188BFF34F8FBFF36F8FFEE715
:102A2000704700007000002004ED00E0084948688D
:102A300028B1401E486001D180F3118870475020B2
:102A400080F31188BFF34F8FBFF36F8FFEE7000055
:102A500070000020002807D0502080F31188BFF3B9
:102A60004F8FBFF36F8FFEE7704700004FF0E020FD
:102A700000210161816105494FF47A720968B1FB57
:102A8000F2F1491E416107210161704728000020D1
:102A900010B5FDF77DFB114910280ED300F1E020A1
:102AA00090F8F0030A78904207D2502080F3118802
:102AB000BFF34F8FBFF36F8FFEE709480068896847
:102AC00000F4E060884207D9502080F31188BFF3FA
:102AD0004F8FBFF36F8FFEE710BD00007000002026
:102AE0000CED00E010B5020014D00F48806B38B137
:102AF000502080F31188BFF34F8FBFF36F8FFEE735
:102B000000F00CF900211046FFF7EEFC00F0C0FDCC
:102B1000002807D105494FF080500860BFF34F8F60
:102B2000BFF36F8F10BD00002C00002004ED00E00B
:102B300070B50D4604000BD095B11E4A906BB8B12C
:102B4000502080F31188BFF34F8FBFF36F8FFEE7E4
:102B5000502080F31188BFF34F8FBFF36F8FFEE7D4
:102B6000502080F31188BFF34F8FBFF36F8FFEE7C4
:102B700000F0D4F8526923685919934204D98B4262
:102B80000AD9914202D807E08B42FAD9881A21600B
:102B90000021FFF7A9FC00E0216000F079FD00288A
:102BA00007D105494FF080500860BFF34F8FBFF346
:102BB0006F8F70BD2C00002004ED00E002498A6A8E
:102BC00002604969416070472C00002001490120E2
:102BD000486270472C00002010B50C4650B10949DE
:102BE00009681831FFF7DEFE2046BDE810400121DC
:102BF000FFF77ABC502080F31188BFF34F8FBFF3EB
:102C00006F8FFEE72C00002070B504004BD0A26C43
:102C1000A2B1606C884200D30146E06A884242D08B
:102C2000012A40D1204D2A6894420FD1502080F3D0
:102C30001188BFF34F8FBFF36F8FFEE7502080F3F3
:102C40001188BFF34F8FBFF36F8FFEE7E162A26978
:102C5000002A02DBC1F10701A161144E00EB8000E4
:102C6000616906EB800081421DD1201DFFF76EFED9
:102C7000012150B9E06A00EB800256F8222022B907
:102C8000AA6901FA00F08243AA61E06AAA69814058
:102C90001143A96100EB800006EB8000211DBDE817
:102CA0007040FFF797BE70BD2C0000201804002074
:102CB00010B586B00024039405AA04A903A80494BF
:102CC000FFF758FEDDE903010094CDE90110002370
:102CD0000EA11048059A00F068FB0F4900284863D0
:102CE00011D0502080F31188BFF34F8FBFF36F8F47
:102CF0004FF0FF3008630120C8614C6106B0BDE8A9
:102D0000104000F041B806B010BD000049444C45E9
:102D100000000000F12600082C0000200248816B12
:102D2000491C8163704700002C0000201448816B0F
:102D300011B1012141627047002141628169B1FAFC
:102D400081F1C1F11F0101EB81020E4951F82230DE
:102D50006BB101EB820101F108034A6852684A60D5
:102D60009A4201D152684A60D16801607047502090
:102D700080F31188BFF34F8FBFF36F8FFEE7000022
:102D80002C000020180400201CB52649087801906A
:102D9000FF20087008788DF800009DF800009DF86D
:102DA000002000F0F000904207D0502080F31188FE
:102DB000BFF34F8FBFF36F8FFEE79DF800001A4BF4
:102DC00000F0500018700720986005E09DF8002082
:102DD00052008DF80020401E9DF800201206F5D408
:102DE0009860032807D0502080F31188BFF34F8FDD
:102DF000BFF36F8FFEE74FF4407098600198087042
:102E00000A48016841F470010160016841F07041B5
:102E10000160FFF72BFE00205860FDF783F90020CA
:102E20001CBD000000E400E07000002020ED00E088
:102E3000F8B517460E46050014D0DEB105FB06F0C6
:102E40004830FFF73FFD04000AD0002084F8460018
:102E500004F148023B46314628460094FFF778FCCF
:102E60002046F8BD502080F31188BFF34F8FBFF389
:102E70006F8FFEE70020E3E738B5049D18B153B12A
:102E8000CAB181B120E0502080F31188BFF34F8F89
:102E9000BFF36F8FFEE7502080F31188BFF34F8F91
:102EA000BFF36F8FFEE7502080F31188BFF34F8F81
:102EB000BFF36F8FFEE739B1502080F31188BFF365
:102EC0004F8FBFF36F8FFEE748241C46012384F821
:102ED00046302B460094FFF73BFC204638BD0000EF
:102EE00070B50D46040025D0FFF780FDD4E90F2012
:102EF000216802FB001161600021A1632168A160CB
:102F00000A46D4E90F01401E00FB0121E160214681
:102F10004FF0FF3001F8440F487004F110008DB1FC
:102F2000FFF732FD04F12400FFF72EFDFFF77EFDD1
:102F3000012070BD502080F31188BFF34F8FBFF385
:102F40006F8FFEE721690029F0D000F067FB0028B1
:102F5000ECD004494FF080500860BFF34F8FBFF3AF
:102F60006F8FE3E704ED00E02DE9FF4782B01D46D7
:102F70008A464FF00008040003D0BAF1000F08D0D1
:102F800011E0502080F31188BFF34F8FBFF36F8F94
:102F9000FEE7206C38B1502080F31188BFF34F8FCB
:102FA000BFF36F8FFEE7022D0AD1E06B012807D037
:102FB000502080F31188BFF34F8FBFF36F8FFEE770
:102FC00000F01EFA3F4F4FF000094FF0805648B90D
:102FD000049838B1502080F31188BFF34F8FBFF3AE
:102FE0006F8FFEE7FFF702FDA06BE16B884207D30E
:102FF000022D05D00498D0B1B8F1000F1AD01EE010
:103000002A4651462046FFF722FB616A19B104F1B6
:10301000240000F003FB20B13E60BFF34F8FBFF3ED
:103020006F8FFFF703FD012006B0BDE8F087FFF7C3
:10303000FDFC22E06846FFF7C1FD4FF00108FFF7F5
:10304000F5FCFFF76BFEFFF7D1FC94F94400401C40
:1030500001D184F8449094F94500401C01D184F8D2
:103060004590FFF7E3FC04A9684600F037F930B15A
:103070002046FFF7F1FB00F00BFB0020D4E7FFF741
:10308000B5FCA06BE16B884213D1FFF7CFFC04F1D4
:1030900010000499FFF7A0FD2046FFF7DDFB00F0CC
:1030A000F7FA00289ED13E60BFF34F8FBFF36F8FBA
:1030B00098E7FFF7BBFC2046FFF7CEFB00F0E8FAED
:1030C00090E7000004ED00E02DE9F04790468946C6
:1030D000040003D0B9F1000F08D011E0502080F3B4
:1030E0001188BFF34F8FBFF36F8FFEE7206C38B1AD
:1030F000502080F31188BFF34F8FBFF36F8FFEE72F
:10310000FFF7C6FC5020EFF3118680F31188BFF360
:103110004F8FBFF36F8FA76BF7B194F944504946B7
:103120002046FFF781FA7F1EA763681C04D06D1C40
:1031300084F84450012010E020690028FAD004F1FE
:10314000100000F06BFA0028F4D0B8F1000FF1D0B5
:103150000121C8F80010EDE7002086F31188BDE8D2
:10316000F08700002DE9F343002683B004003546C4
:1031700009D0206C78B1502080F31188BFF34F8FB5
:10318000BFF36F8FFEE7502080F31188BFF34F8F9E
:10319000BFF36F8FFEE700F033F9DFF83C814FF0AB
:1031A00000094FF0805748B9049838B1502080F397
:1031B0001188BFF34F8FBFF36F8FFEE7FFF716FC49
:1031C000A06BC8B1401EA063206810B9FFF7A0FB38
:1031D0006060206950B104F1100000F01FFA28B1BE
:1031E000C8F80070BFF34F8FBFF36F8FFFF71EFC5F
:1031F000012005B0BDE8F083049808B166B10FE086
:103200003DB1502080F31188BFF34F8FBFF36F8F14
:10321000FEE7FFF70BFC5DE06846FFF7CFFC0126F9
:10322000FFF704FCFFF77AFDFFF7E0FB94F9440099
:10323000401C01D184F8449094F94500401C01D110
:1032400084F84590FFF7F2FB04A9684600F046F8C1
:103250000028204612D0FFF7FFFA00F019FA2046A6
:10326000FFF7C8FA0028A9D09DB3FFF7BFFB606A3B
:1032700050B3206B0068C0F1070126E0FFF7BAFAEF
:10328000E0B1206838B9FFF7B1FB606800F07CF965
:103290000546FFF7CBFB04F124000499FFF79CFCE3
:1032A0002046FFF7D9FA00F0F3F9002886D1C8F8D4
:1032B0000070BFF34F8FBFF36F8F7FE72046FFF79C
:1032C000CBFA00F0E5F979E700216068FFF79CFC94
:1032D0009FE7FFE700208CE704ED00E02DE9F041D7
:1032E0000C46050011D0C4B1FFF780FB174B5A699B
:1032F0006E682068911B471C17D02F689B6A9F42FD
:1033000019D0964217D8012410E0502080F311887C
:10331000BFF34F8FBFF36F8FFEE7502080F311880C
:10332000BFF34F8FBFF36F8FFEE70024FFF77EFBE5
:103330002046BDE8F081884205D9401A2060284621
:10334000FFF73CFCF1E700202060DCE72C000020C8
:103350002DE9FF5F8346DDE90E87994616468A46CA
:103360009000FFF7AFFA05001CD05420FFF7AAFA2F
:10337000040014D00020256384F85100CDE90240F8
:10338000CDE900874B46324651465846FFF7EBF9E8
:103390002046FFF7E1F8012004B0BDE8F09F284681
:1033A000FFF758FB4FF0FF30F6E7F0B585B0DDE9E9
:1033B0000B640A9DA6B1DCB1542700972663022650
:1033C00084F85160002604AFCDE90246CDE90057EC
:1033D000FFF7C9F92046FFF7BFF8049805B0F0BD24
:1033E000502080F31188BFF34F8FBFF36F8FFEE73C
:1033F000502080F31188BFF34F8FBFF36F8FFEE72C
:103400000548C16919B1806B18B1002070470120CF
:1034100070470220704700002C00002001484069DE
:10342000704700002C0000202DE9F0412E4C0027B1
:10343000A06B40B1206A401C2062606A00B1012785
:103440003846BDE8F0816669761C666113D1606814
:10345000006838B1502080F31188BFF34F8FBFF35D
:103460006F8FFEE76068A1686160A060A06A401C81
:10347000A062FFF7CDF9206BDFF87080864209D398
:103480006068006880B16068C068C5686868864226
:103490000DD220632068C06A00EB800158F821003B
:1034A0000128CAD90127C8E74FF0FF30F1E7281DEE
:1034B000FFF74CFAA86A18B105F11800FFF746FAB1
:1034C000E86A0121A26981401143A16100EB8001FA
:1034D00008EB8100291DFFF77DFAE86A2168C96AB7
:1034E0008842CDD30127CBE72C0000201804002010
:1034F00070B504004FF0000140D0214D286884428F
:1035000007D0502080F31188BFF34F8FBFF36F8F28
:10351000FEE7A06C38B1401EA064636CE26A9A4278
:103520002CD040B12AE0502080F31188BFF34F8F98
:10353000BFF36F8FFEE7201DFFF708FA114A012144
:1035400050B9E06A00EB800352F8233023B9AB692D
:1035500001FA00F08343AB61606CE062C0F10700E8
:10356000A061E06AAB6981401943A96100EB80006A
:1035700002EB8000211DFFF72DFA0121084670BDE6
:103580002C0000201804002070B504004FF000004B
:1035900038D0204DE16A2A68D26A914233D2A069BC
:1035A000002804DB2868C06AC0F10700A0611A4E39
:1035B00001EB8101606906EB810188421ED1201D6B
:1035C000FFF7C4F9012150B9E06A00EB800256F818
:1035D000222022B9AA6901FA00F08243AA61286870
:1035E000C06AE062AA6981401143A96100EB8000D2
:1035F00006EB8000211DFFF7EDF902E02868C06AA4
:10360000E062012070BD616C2A68D26A9142F8D3F1
:1036100070BD00002C000020180400202DE9F041AE
:10362000C068C468ACB104F118000746FFF78EF912
:10363000154DA86B0126A0B139461448FFF7CAF909
:10364000E06A2968C96A88421CD901206E62BDE817
:10365000F081502080F31188BFF34F8FBFF36F8F3D
:10366000FEE7201DFFF772F9E16AAA6906FA01F088
:103670001043A86101EB81000449B43901EB8000DB
:10368000211DDBE70020E2E72C000020CC04002015
:103690002DE9F0472C4D00242746A86B38B1FFF7E1
:1036A000A5F9A86B401EA863A86B40B146E0502066
:1036B00080F31188BFF34F8FBFF36F8FFEE7296947
:1036C000224E0120D1B3A6F1B40980463068E8B19A
:1036D000F068C46804F11800FFF738F9201DFFF7FF
:1036E00035F9E06AAA6908FA00F11143A96100EB13
:1036F000800109EB8100211DFFF76CF9E06A296860
:10370000C96A8842E2D3C5F82480DFE70CB1FFF72D
:103710007FF82C6A44B14646FFF786FE00B16E6220
:10372000641EF9D100202862686A38B1084901276F
:1037300038070860BFF34F8FBFF36F8FFFF776F93D
:103740003846BDE8F08700002C000020CC040020A3
:1037500004ED00E081F34961332505F1012100000A
:10376000E8370008791E0008000000000000000093
:103770008000000000000000000000000038000889
:10378000051E00080200000000000000800000008C
:103790000000000000000000F4370008911E00083F
:1037A0000000000000000000800000000000000099
:1037B0000000000010380008D51E000800000000BE
:1037C0000000000080000000000000000000000079
:1037D00000000000000000000102030406070809C1
:1037E000000000000102030464656661756C745496
:1037F00061736B00646973706C61795461736B0001
:10380000627574746F6E48616E646C65720000005E
:10381000627574746F6E506F6C6C6572000000009E
:1038200040380008000000207C0000001A22000838
:10383000BC3800087C0000208C1400002A220008FC
:103840000000000000000000000000000000000078
:103850000000000000000000000000000100000067
:1038600010000000000000000024F4000000000030
:103870000000000000000000000000000000000048
:103880000000000000000000000000000000000038
:103890000000000000000000000000000000000028
:1038A0000000000000000000000000000000000018
:0C38B00000000000AAAAAAAA0000000064
:04000005080000ED02
:00000001FF
